:020000040000fa
:080000000002040000000000f2
:020000040000fa
:10000800d2020000d2020000d2020000d202000098
:10001800d2020000d2020000d2020000d202000088
:10002800d2020000d2020000d2020000d202000078
:10003800d2020000d2020000d2020000d202000068
:10004800d2020000d2020000d20200009603000093
:100058003c030000d2020000d2020000d2020000dd
:10006800d2020000d2020000d2020000d202000038
:10007800d2020000d2020000d2020000d202000028
:10008800d2020000d2020000d2020000d202000018
:10009800d2020000d2020000d2020000d202000008
:1000a800d2020000d2020000d2020000d2020000f8
:1000b800d2020000d2020000d2020000d2020000e8
:1000c800d2020000d2020000d2020000d2020000d8
:1000d800d2020000d2020000d2020000d2020000c8
:1000e800d2020000d2020000d2020000d2020000b8
:1000f800d2020000d2020000d2020000d2020000a8
:10010800d2020000d2020000d2020000d202000097
:10011800d2020000d2020000d2020000d202000087
:10012800d2020000e0030000d2020000d202000068
:10013800d2020000d2020000d2020000d202000067
:10014800d2020000d2020000d2020000d202000057
:10015800d2020000d2020000d2020000d202000047
:10016800d2020000d2020000d2020000d202000037
:10017800d2020000d2020000d2020000d202000027
:10018800d2020000d2020000d2020000d202000017
:10019800d2020000d2020000d2020000d202000007
:1001a800d2020000d2020000d2020000d2020000f7
:1001b800d2020000d2020000d2020000d2020000e7
:1001c800d2020000d2020000d2020000d2020000d7
:1001d800d2020000d2020000d2020000d2020000c7
:1001e800d2020000d2020000d2020000d2020000b7
:0801f800d2020000d202000057
:020000040000fa
:10020800d2020000d2020000d2020000d202000096
:10021800d2020000d2020000d2020000d202000086
:10022800d2020000d2020000d2020000d202000076
:10023800d2020000d2020000d2020000d202000066
:10024800d2020000d2020000d20200009603000091
:100258003c030000d2020000d2020000d2020000db
:10026800d2020000d2020000d2020000d202000036
:10027800d2020000d2020000d2020000d202000026
:10028800d2020000d2020000d2020000d202000016
:10029800d2020000d2020000d2020000d202000006
:1002a800d2020000d2020000d2020000d2020000f6
:1002b800d2020000d2020000d2020000d2020000e6
:1002c800d2020000d2020000d2020000d2020000d6
:1002d800d2020000d2020000d2020000d2020000c6
:1002e800d2020000d2020000d2020000d2020000b6
:1002f800d2020000d2020000d2020000d2020000a6
:10030800d2020000d2020000d2020000d202000095
:10031800d2020000d2020000d2020000d202000085
:10032800d2020000e0030000d2020000d202000066
:10033800d2020000d2020000d2020000d202000065
:10034800d2020000d2020000d2020000d202000055
:10035800d2020000d2020000d2020000d202000045
:10036800d2020000d2020000d2020000d202000035
:10037800d2020000d2020000d2020000d202000025
:10038800d2020000d2020000d2020000d202000015
:10039800d2020000d2020000d2020000d202000005
:1003a800d2020000d2020000d2020000d2020000f5
:1003b800d2020000d2020000d2020000d2020000e5
:1003c800d2020000d2020000d2020000d2020000d5
:1003d800d2020000d2020000d2020000d2020000c5
:1003e800d2020000d2020000d2020000d2020000b5
:0803f800d2020000d202000055
:020000040000fa
:10040000af8820000e7f22000e018800000000004f
:10041000000020000000e000020032000001200087
:10042000200288000c0007006079200001002000f5
:100430000f000700000020000000e0000200320072
:10044000000002000000000046070200000000005b
:100450000040da000000fe00a00120000000e000e3
:1004600002003200002020009001880000000600f9
:10047000a1028800800078000000eb001a0037001d
:10048000e280400054a0b4009101ba00e280400034
:1004900054a0b4009102ba00e280400054a0b4001d
:1004a0000002eb00472bde00f507b200a601880032
:1004b000602ce10008003a000049eb000201e8006e
:1004c000020039003420ec0002f0a0008301e900b2
:1004d000f9ff3e00040037006128e100010032000e
:1004e0000082eb00040007001101ba000200e000e6
:1004f000e3ff3a000000060004d0a300e20f490029
:100500001c003900810278003549ba000201e80078
:10051000020039003420ec0002f0a0008301e90061
:100520000f0032002549ba000201e800020039003c
:100530003420ec0002f0a0008301e9000800320042
:100540000400e0000600320015c9ba000201e8000c
:10055000020039003420ec0002f0a0008301e90021
:100560008180e80054a0b4000300e000e2ff3a00fc
:10057000000006009102ba00055978008301e900e5
:10058000f7ff3200c82ade00055978008301e90030
:10059000f3ff32000400e000f1ff320011d9ba008d
:1005a000eeff37000040da000000fe000002780095
:1005b0008042eb00b4cf1200fdff3a000080ea0059
:0805c0000000420000000600eb
:020000040000fa
:1005c8005049000043320000342000004465000018
:1005d80076200000626f0000617200006420000055
:1005e8007374000061720000746900006e67000097
:0405f80000000000ff
:020000040000fa
:1005fc000000fa0084002800041188000002eb00bf
:10060c00141188000002eb00241188000002eb009a
:10061c0034118800041a2000441188009560a80049
:10062c002342a800a480200034408800a48020002d
:10063c0024408800a484200014408800a484200056
:10064c00044088000828a8000928a8000908a90067
:10065c000808a9000080fa00000006000000fa005b
:10066c00e3ff07000080fa0000000600849fbe0034
:10067c000200fa0045408000042020000482620041
:10068c00e00f5200020032009580a90021003700d3
:10069c008580a9000002eb00040f780015003700dc
:1006ac001e0fe80034408000144278000482fb00e6
:1006bc0024118800344080000402e8003440880093
:1006cc0035408000a4842000848f520002003a0040
:1006dc00a4802000344088000908a900354080001f
:1006ec0024408000848f520002003a000928a800a0
:1006fc00080037001e027800e00f520005003c0095
:10070c00151180000420200004826200e00f5200ca
:10071c00e3ff32000080fa004f02be0000400600ea
:10072c00849fbe000200fa000002eb00040f780068
:10073c00150037001e0fe8000440800035118000c2
:10074c0085427800054a7800044080000402e800e5
:10075c000440880005408000a4882000848f52004b
:10076c0002003a00a4842000044088000828a90054
:10077c000540800014408000848f520002003a0033
:10078c000808a800070037001e027800e00f52008e
:10079c0004003c001411800061026200e00f520062
:1007ac00e4ff3a008560a9000080fa004f02be0009
:1007bc0000400600841f78000000fa00141180002d
:1007cc0062026200e00f5200010032002222a900f6
:1007dc008c20a9000080fa004f027800004006002f
:1007ec000200fa000042eb00044f78001440800035
:1007fc00144f7800144080000402e8001440880074
:10080c0015408000a4882000848f520002003a001a
:10081c00a48420001440880015408000044080000f
:10082c00848f520001003a000828a8000808a9008b
:10083c001e427800044078000080fa000000060098
:10084c000000fa00e6ff0700004278000440780040
:10085c000080fa00000006000600fa00881f7800ed
:10086c0010079800210798000002eb00040f780095
:10087c000a0037004440800062026200e00f520020
:10088c000b003a001e0290001e044200d4ff070029
:10089c0000427800044c78001e0fe8002e029000f5
:1008ac009e027800848f5200f2ff3900010037005d
:1008bc00000000001e027800040078004f0478004d
:1008cc000080fa00000006000400fa00000f780017
:1008dc00110798009e0090001e007800deff0700b4
:1008ec0000027800040078000080fa000000060086
:1008fc000200fa00004f7800244080001e4a780065
:10090c00244080000402e800244088002540800038
:10091c00a4842000848f520002003a00a48020009e
:10092c00244088000928a90035408000244080001c
:10093c00848f520001003a000908a800a504800029
:10094c000400210004826200e00f520001003a0012
:10095c009580a8000080fa00000006000200fa0052
:10096c00004f78001e407800e1ff07000080fa007d
:10097c00000006000600fa001007980021079800f6
:10098c000002eb00040f78000b003700454080009c
:10099c000410200004826200e00f52000b003a00a9
:1009ac001e0290001e024200144278001e0fe80046
:1009bc0004407800ceff07002e0290009e027800c3
:1009cc00848f5200f1ff3900010037000000000055
:1009dc001e027800040078000080fa000000060077
:1009ec000400fa00000f7800110798009e00900098
:1009fc001e007800dfff070000027800040078007a
:100a0c000080fa00000006000200fa000002eb0071
:100a1c00040f78004540800004102000048262001e
:100a2c00e00f5200010032001e30a0004540800053
:100a3c000420200004826200e00f5200010032000a
:100a4c001e40a0004440800061026200e00f520092
:100a5c00010032001e00a0004440800062026200cf
:100a6c00e00f5200020032001e20a00001003700ef
:100a7c001e10a0001e027800040078000080fa000e
:100a8c00000006000000fa00dfff070000027800fb
:100a9c00040078000080fa00000006000200fa0052
:100aac00000f7800144080009e024200a4882000b1
:100abc00848f520009003600144080009e024200d0
:100acc00a48820000402ea0084824200a48420004e
:100adc000482420014427800030037001440800066
:100aec001e02420014427800044078000080fa0094
:100afc00000006000200fa00000f78001e007800cb
:100b0c00e6ff070000427800044078000080fa00fd
:100b1c00000006000000fa00444080006102620000
:100b2c00e00f52000f003a00154080000440800096
:100b3c00848f520005003600144080008402780037
:100b4c0004408000048252000700370014408000eb
:100b5c008402780004408000048252000404b00037
:100b6c00010037000002eb00040078000080fa005e
:100b7c00000006000000fa00e6ff07000002780003
:100b8c00040078000080fa00000006000000fa0063
:100b9c00454080000410200004826200e00f5200e7
:100bac000f003a003540800024408000848f5200b2
:100bbc000500360034408000840278002440800018
:100bcc000482520007003700344080008402780011
:100bdc0024408000048252000404b000010037005d
:100bec000002eb00040078000080fa000000060010
:100bfc000000fa00e5ff070000027800040078000e
:100c0c000080fa00000006000000fa00444080005a
:100c1c000402d100614262000482fb0004f0a700d0
:100c2c000402ea000402ea004f22de0004427800cb
:100c3c00044078000080fa00000006000000fa0072
:100c4c00f1ff070000427800044078000080fa00b1
:100c5c00000006000000fa00444080004822de003c
:100c6c00614262000482fb0004f0a7000402ea0067
:100c7c000402ea004f22de000442780004407800af
:100c8c000080fa00000006000000fa00f1ff0700e7
:100c9c0000427800044078000080fa000000060052
:100cac000000fa0014118000040078000080fa00a3
:100cbc00000006000000fa00f9ff070000027800af
:100ccc00040078000080fa00000006000000fa0022
:100cdc000002eb0064168800f40f2f004416880005
:100cec000002eb00a416880004002900841688007a
:100cfc000002eb00e4168800f4ff2000c416880004
:100d0c000002eb0024178800740e200004178800e2
:100d1c000002eb0064178800b40b20004417880015
:100d2c000002eb00a4178800c40c20008417880074
:100d3c00f40f2f0014278800f4ff200034278800bc
:100d4c00040e200044278800940b200054278800b0
:100d5c000002eb0064278800153a8000f40b200099
:100d6c0004836200640420007505200027742000b1
:100d7c00844b7800854b7800864b780025358000b5
:100d8c0004fc2f00048262005401b3002435880057
:100d9c0025358000f40f2c008482620004a0210011
:100dac00050272002435880095368000f40f2c0063
:100dbc0084826200043020000502720094368800a0
:100dcc00d5368000f40f2c00848262000440200091
:100ddc0005027200d4368800153a80000404200005
:100dec0005037200640420007505200027742000a0
:100dfc00844b7800854b7800864b78000080fa0095
:100e0c00000006000400fa00100798001e02900073
:100e1c0004007800e2fd070000027800040f78005f
:100e2c001e027800840078001e009000d1fe07009e
:100e3c00000000009aff0700000278000510200057
:100e4c0005026200e00f5200faff3200d0c0b3007e
:100e5c00a7fe0700a0c0b300a5fe0700000000001d
:100e6c008fff0700000278000510200005026200c9
:100e7c00e00f5200faff32000080fa00000006007a
:100e8c000000fa0017000700442e28000400780028
:100e9c00dcff0700e462a800ffff37000000fa0047
:100eac004405800004c0a00004d0a10004e0a1000f
:100ebc0044058800240680000440a0000450a100d2
:100ecc000460a10024068800540580000400a000e2
:100edc000410a1000420a100540588000080fa0031
:100eec00000006000000fa000500070077ff07006d
:100efc00eaff0700befd07000080fa0000000600b4
:100f0c000000fa0004102300343a88000002eb00c1
:100f1c00443a88004227a8000080fa00000006002e
:020000040000fa
:100f2c00000800008a0000008000000000000000a3
:020000040000fa
:020000040002f8
:04aff000ff870000d7
:020000040000fa
:020000040002f8
:04aff400ffff00005b
:020000040000fa
:020000040002f8
:04aff8007de30000f5
:020000040000fa
:020000040002f8
:04affc003f3b0000d7
:00000001FF
